:040000008A15002835
:0E000600213083120313FD00FD0B07280800B4
:100014000F3083120313FC004730FD00FD0B102842
:0A002400FC0B10280000000008008B
:06002E00000000000800C4
:10003400023083120313FC004930FD00FD0B20281D
:0A004400FC0B20280000000008005B
:10004E0083160313C21B2E288312861130288312A7
:10005E0086158316421B3628831206113828831202
:10006E0006158316C21A3E28831286104028831264
:10007E0086148316421A46288312061048288312C5
:10008E00061451184C2806164D28061286161720EF
:10009E0086128316C2195628831286115828831287
:1000AE008615831642195E28831206116028831264
:1000BE0006158316C21866288312861068288312C6
:1000CE008614831642186E28831206107028831227
:1000DE00061451187428061675280612861617204F
:0E00EE008612511C7C280A207D280320080061
:0E00FC00831203134C088A004B088200080090
:10010A00333083120313FD00FD0B89280000000021
:02011A000800DB
:10011C00831603133D08F1000130F0007108031938
:10012C009B28F00D7010FF3E95287008BF00F00959
:10013C003C088400700880058417700880051A201C
:10014C0083163F0880048413852083163F0800051E
:10015C00BE003E08003A013003190030BE001A20E0
:08016C0083163E08F0000800B4
:1001740083120313511083163C08C2002720511424
:02018400080071
:10018600831603133D08F1000130F00071080319CE
:10019600D028F00D7010FF3ECA287008C100F00983
:1001A6007008C0003C088400700880058417BF01F1
:1001B6003F08073C031CF6283F08F0003E08F10004
:1001C60070080319EA28F10CF113FF3EE4284008F1
:1001D6008005711CF028410880048520831641089B
:0E01E6008004BF0ADB288413032003200800D6
:1001F400831603130911831209110330FD00FD0B4B
:10020400012900000000831609150530FD00FD0BCF
:100214000929000000000030831209190130F1009F
:100224002430FD00FD0B142900007108F0000800C3
:10023400831603130911831209110330FD00FD0B0A
:10024400212900000000831609152A30FD00FD0B4A
:060254002929000008004A
:10025A00831603130911831209112730FD00FD0BC0
:10026A00342900000000831609150630FD00FD0B35
:06027A003C290000080011
:10028000831603133C0883123E06F0000030F10091
:10029000DE30F00705300318013EF1077008CB008F
:1002A0007108CC007E208A110A12F0007008BE008E
:0202B000080044
:1002B20083120313F801F9011030FC00710DF80DDF
:1002C200F90D7408F8027508031C750FF90203187A
:1002D20071297408F80775080318750FF9070310D8
:0A02E200F00DF10DFC0B5F29080080
:1002EC008829803083160313AE009B29C030AE00E2
:1002FC009B299430AE009B29D430AE009B298030D2
:10030C00AE009B29831603132E08013A0319772993
:10031C002E08023A03197C292E08033A03197F2967
:10032C002E08043A0319822985292F03F0002E0880
:10033C00F0077008AE007008C20027205110831619
:10034C00B10131083007840000080319B6293108BF
:10035C00300784000008BC00BA208316B10AA72914
:06036C0083125114080089
:10037200013083160313AE000030AF00B001B101AB
:10038200B201B3010130BA00B401B5018312BE015A
:100392003C083D04031DCD2A09308316BC000230FF
:1003A200BD008E2070080319E0298312C901CA0119
:1003B200BC01BD01C701C801F001F101E62A093003
:1003C2008316BC000230BD00F030BE00C320FA200C
:1003D20070088316B600B701FA2070088316B800B9
:1003E200B90100303706031DF82901303606031D16
:1003F200032A00303906031D002A01303806031D86
:10040200032A9B2A37083906031D092A38083606AB
:1004120003190E2A3608BB00522A80302F06F0003C
:10042200803083124A067002031D1A2A4908831675
:100432002E0203182A2A831632083F3E84003A0805
:100442000005BB003B08003C013003180030BB0034
:10045200382A83162F0883124A06031D332A4908B5
:1004620083162E0683160130031D0030BB003B08A5
:10047200003A031D522A2E08B0002F08B100803026
:100482002F06F00080307002031D492A09302E0227
:100492000318522A30088312C700831631088312C8
:1004A200C80083163B08013A031D642A32083F3E06
:1004B200F100710884003A080004F0007108840019
:1004C20070088000712A32083F3EF1003A09F000BC
:1004D200710884000008F00571088400700880002B
:1004E2003B080319762A1A21772A2D21AE0A03190D
:1004F200AF0A3A08F100F10D71107108BA007108E3
:10050200003A031D902A32083F3E84000008BC00D6
:1005120040218316B20A0319B30A0130BA008030AF
:100522003306F00080307002031D992A083032022F
:10053200031CE82980302F06F00080307002031D72
:10054200A42A41302E02031CAD2A83123E08003A2F
:10055200031DAD2AF001AF2A0130F0007008031D1F
:10056200CD2A831630088312C900831631088312FC
:10057200CA00003083163106031DC12A003030063E
:10058200031DC82A01308312BC000030BD000130B7
:100592008316B4000030B5008316340835040319FD
:1005A200D72A83123F080319D72AE12A8312C901E5
:1005B200CA01BC01BD01C701C8018316B401B5015E
:0C05C20083163408F0003508F100080032
:1005CE0083120313FB01FA01F9018030F800F10CDC
:1005DE00F00C031CFB2A7408F90775080318750F35
:1005EE00FA070318FB0A0310F01F032B7408FA070F
:1005FE0075080318750FFB07FB0CFA0CF90CF80CB9
:10060E00031CEE2A7B08F3007A08F2007908F10049
:06061E007808F00008005E
:1006240083120313F8010830FC00700DF80D7408F0
:10063400F80203181F2BF8070310F00DFC0B172BFF
:020644000800AC
:1006460083160313A91FF32B8312200884002D3071
:10065600800083162809F0002909F1007008013E80
:10066600F30000300318013E7107F4007308A80078
:100676007408A9007308F0007408F100F10CF00C7E
:10068600F113F10CF00CF113F10CF00CF113F10C69
:10069600F00CF11370088312EE00200AEF000A3006
:1006A600F40012230A30F40012237808F0003030E8
:1006B600F0076F0884007008800002302007EF0002
:1006C6000A30F4006E08F00012237808F00030308B
:1006D600F0076F0884007008800083162808AC00B5
:1006E6002908AD000F302805F0002908F100003078
:1006F600F1057008AC007108AD007130F4000230ED
:10070600F500E72270088316AC007108AD000430CE
:1007160083122007EF00E830F4000330F50059217A
:100726003030F0076F08840070088000053020071D
:10073600EF006430F4000030F50083162C08F0005A
:100746002D08F10059210A30F4000030F500592136
:100756007808F0007908F1003030F0076F0884005F
:100766007008800006302007EF000A30F4000030E1
:10077600F50083162C08F0002D08F10059210A30E7
:10078600F4000030F50059217808F0007908F100EE
:100796003030F0076F0884007008800007302007AB
:1007A600EF000A30F4000030F50083162C08F00044
:1007B6002D08F10059217808F0007908F100303051
:1007C600F0076F0884007008800083162A08AE00C0
:1007D6000530AF00831220088316B0007621C12CA5
:1007E60083162808F0002908F100F10CF00CF1132B
:1007F600F10CF00CF113F10CF00CF113F10CF00C00
:10080600F11370088312EE006430F40012237008AE
:100816000319192C6430F4006E08F00012233030EE
:10082600F00720088400700880001D2C2008840032
:1008360030308000200AEF000A30F4006E08F00025
:1008460012230A30F40012237808F0003030F00743
:100856006F0884007008800002302007EF000A301D
:10086600F4006E08F00012237808F0003030F0072C
:100876006F0884007008800083162808AC002908D9
:10088600AD000F302805F0002908F1000030F10511
:100896007008AC007108AD007130F4000230F5004C
:1008A600E72270088316AC007108AD00043083128D
:1008B6002007EF00E830F4000330F500592130300E
:1008C600F0076F0884007008800005302007EF00ED
:1008D6006430F4000030F50083162C08F0002D0873
:1008E600F10059210A30F4000030F500592178084A
:1008F600F0007908F1003030F0076F0884007008C6
:10090600800006302007EF000A30F4000030F500C2
:1009160083162C08F0002D08F10059210A30F40046
:100926000030F50059217808F0007908F1003030E0
:10093600F0076F0884007008800007302007EF007A
:100946000A30F4000030F50083162C08F0002D085C
:10095600F10059217808F0007908F1003030F007ED
:100966006F0884007008800083162A08AE000530E0
:0E097600AF00831220088316B000762108001F
:10098400831203136F08F1000130F000710803199A
:10099400CF2CF00D7010FF3EC92C70088316AB00ED
:1009A4007009AA0083126E0884008316A901A801A5
:1009B4002808073C031CFF2C2A08800584172A08F2
:1009C400800517202B088004172084132B080005AA
:1009D400F0000319FA2C2808F1000130F000710826
:1009E4000319F82CF00D7010FF3EF22C7008A904C6
:1009F400032003208316A80ADA2C2908F000080033
:040A0400B92108000C
:100A0800831203136E08F000F00CF013F00CF013CF
:100A1800F00CF013F00CF0130030F100DE30F007AA
:100A280006300318013EF1077008CB007108CC00AE
:100A38007E208A110A12F0006F0884007008800076
:100A48006F0AF2000F306E05F0000030F100DE3062
:100A5800F00706300318013EF1077008CB00710853
:100A6800CC007E208A110A12F000720884007008F7
:0C0A7800800002306F078400800108003D
:100A8400542D803083160313A800672DC030A800AE
:100A9400672D9430A800672DD430A800672D8030CE
:100AA400A800672D831603132808013A0319432D60
:100AB4002808023A0319482D2808033A03194B2D34
:100AC4002808043A03194E2D512D2903F000280853
:100AD400F0077008A8008312511470088316C2002E
:100AE4002720511083162A08C20027205114080019
:100AF40083120313C901CA01BC01BD01C701C801A6
:040B0400B92108000B
:100B08008316031386120612061086100611861124
:100B180083128612061286110611861006100A2004
:100B28000A200A20861406148616172086120A2020
:100B38008616172086120A208616172086120A2083
:100B480006108616172086120A2086161720861287
:100B5800861086158616172086120A208611061416
:100B680086161720861206108616172086120A2067
:100B780086161720861206148616172086120A2053
:100B88000610861617208612861506158614061472
:0C0B98008616172086120A20511408004F
:100BA4007E208A110A128000840ACB0A0319CC0A17
:080BB400F003031DD22D08001F
:10100000333083120313A0004E30A1006F30A200D2
:101010002030A3006430A4006530A5007630A6001F
:101020006930A7006330A8006530A9007330AA00BA
:101030002030AB006630AC006F30AD007530AE00D4
:101040006E30AF006430B0000A30B100B201303011
:10105000B3003030B4003030B5002E30B600303040
:10106000B7003030B8003030B9003030BA00BB01C2
:1010700083160317880189018312871388138A1145
:1010800084258A150C308316C2008A1127208A1500
:1010900001308316C2008A1127208A150930831671
:1010A000BC000230BD008A118E208A150930BC00B8
:1010B0000230BD00F030BE008A11C3208A15CD0178
:1010C000CE018A117A258A158312031370087104E0
:1010D00003199B28CD0A0319CE0AE50108306502E1
:1010E00003189B2865083F3E84000008EE005D3031
:1010F000EF008A1104258A1501308316AE00831291
:101100006508F000F00D701070080F3C8316AF00FA
:101110005D30B0008A1176218A156508553EF100D0
:1011200065083F3E84000008F000710884007008E4
:101130008000E50A6E288A1102258A15831203139E
:10114000700871040319D628CD0A0319CE0AE501E7
:10115000083065020318D52865083F3E8400000862
:10116000EE00A030EF008A1104258A1502308316A4
:10117000AE0083126508F000F00D701070080F3C8F
:101180008316AF00A030B0008A1176218A15650859
:10119000663EF10065083F3E84000008F0007108DB
:1011A000840070088000E50AA8289B2800304E06BD
:1011B000031DDC2800304D06031DE828013083168E
:1011C000AE000130AF002130B0008A1176218A15BF
:1011D0000B30FB002630FC005D30FD00FD0BEE28DF
:1011E000FC0BEE28FB0BEE280000000001308316FC
:1011F000C2008A1127208A1509308316BC000230EC
:10120000BD008A118E208A150930BC000230BD0055
:101210005530BE008A11C3208A15E50108306502E9
:101220000318232909308316BC000230BD00831245
:101230006508553E840000088316BE008A11C3204D
:101240008A15E50A0E291A30FC00F830FD00FD0B66
:101250002729FC0B2729000009308316BC00023027
:10126000BD004430BE008A11C3208A150830FB003F
:10127000B630FC00FF30FD00FD0B3C29FC0B3C2987
:10128000FB0B3C290000000009308316BC00023033
:10129000BD008A118E208A150930BC000230BD00C5
:1012A0005530BE008A11C3208A15E5010830650259
:1012B00003186B2909308316BC000230BD0083126D
:1012C0006508553E840000088316BE008A11C320BD
:1012D0008A15E50A56291A30FC00F830FD00FD0B8E
:1012E0006F29FC0B6F29000009308316BC00023007
:1012F000BD00BE30BE008A11C3208A150930EE0041
:101300000230EF008A11C2248A1570088312CF00C0
:10131000D0010930EE000230EF008A11C2248A1594
:101320007008F200F10171088312CF0772080318E8
:10133000013ED0070430D40001308316A8000D30E0
:10134000A900B230AA008A1142258A1501308316FD
:10135000A8000E30A9004330AA008A1142258A1540
:101360004F088316A800831250088316A900013085
:10137000AA000030AB008A1123238A150930831696
:10138000BC000230BD008A118E208A150930BC00D5
:101390000230BD005530BE008A11C3208A15E50118
:1013A000083065020318E52909308316BC000230B5
:1013B000BD0083126508663E840000088316BE00E7
:1013C0008A11C3208A15E50AD0291A30FC00F830AA
:1013D000FD00FD0BE929FC0BE9290000093083160B
:1013E000BC000230BD004430BE008A11C3208A1503
:1013F0000830FB00B630FC00FF30FD00FD0BFE297D
:10140000FC0BFE29FB0BFE290000000009308316AF
:10141000BC000230BD008A118E208A150930BC0044
:101420000230BD005530BE008A11C3208A15E50187
:101430000830650203182D2A09308316BC000230DB
:10144000BD0083126508663E840000088316BE0056
:101450008A11C3208A15E50A182A1A30FC00F830D0
:10146000FD00FD0B312AFC0B312A000009308316E8
:10147000BC000230BD00BE30BE008A11C3208A15F8
:101480000930EE000230EF008A11C2248A1570087C
:101490008312D200D3010930EE000230EF008A112E
:1014A000C2248A157008F200F10171088312D20774
:1014B00072080318013ED3070430D40002308316AB
:1014C000A8000D30A900B230AA008A1142258A1561
:1014D00002308316A8000E30A9004330AA008A11FA
:1014E00042258A1552088316A800831253088316D2
:1014F000A9000230AA000030AB008A1123238A150C
:04150000FC28812A18
:100BBC0000345E34BC34E23461343F34DD3483348D
:100BCC00C2349C347E342034A334FD341F3441347D
:100BDC009D34C33421347F34FC34A23440341E346D
:100BEC005F340134E334BD343E3460348234DC345D
:100BFC0023347D349F34C13442341C34FE34A0344D
:100C0C00E134BF345D3403348034DE343C3462343C
:100C1C00BE34E03402345C34DF34813463343D342C
:100C2C007C342234C0349E341D344334A134FF341C
:100C3C0046341834FA34A434273479349B34C5340C
:100C4C008434DA3438346634E534BB3459340734FC
:100C5C00DB34853467343934BA34E43406345834EC
:100C6C0019344734A534FB3478342634C4349A34DC
:100C7C0065343B34D934873404345A34B834E634CC
:100C8C00A734F9341B344534C63498347A342434BC
:100C9C00F834A63444341A349934C73425347B34AC
:100CAC003A3464348634D8345B340534E734B9349C
:100CBC008C34D23430346E34ED34B33451340F348C
:100CCC004E341034F234AC342F3471349334CD347C
:100CDC0011344F34AD34F33470342E34CC3492346C
:100CEC00D3348D346F343134B234EC340E3450345C
:100CFC00AF34F13413344D34CE34903472342C344C
:100D0C006D343334D1348F340C345234B034EE343B
:100D1C0032346C348E34D03453340D34EF34B1342B
:100D2C00F034AE344C3412349134CF342D3473341B
:100D3C00CA34943476342834AB34F534173449340B
:100D4C0008345634B434EA3469343734D5348B34FB
:100D5C0057340934EB34B534363468348A34D434EB
:100D6C009534CB3429347734F434AA3448341634DB
:100D7C00E934B73455340B348834D63434346A34CB
:100D8C002B3475349734C9344A341434F634A834BB
:100D9C0074342A34C834963415344B34A934F734AB
:100DAC00B634E8340A345434D73489346B3435349B
:100DBC0030343134323433343434353436343734EB
:100DCC003834393441344234433444344534463471
:04400E00F22F000786
:00000001FF
